:100BBB0048432D3038E794B5E69CBAE68EA7E58816
:100BCB00B6E7B3BBE7BB9FE5B0B1E7BBAA0D0A0025
:100BDB00E591BDE4BBA43A20462DE5898DE8BF9B8A
:100BEB0020422DE5908EE98080204C2DE5B7A6E8BC
:100BFB00BDAC20522DE58FB3E8BDAC20532DE58164
:070C0B009CE6ADA20D0A00FA
:100AFF00C291C2907FD07E07120D26120DB7120D34
:100B0F0066120E69C2A0C2A1C296C297C2A2C2A3A8
:100B1F00C2A6C2A7C290120D9D120DDE7BFF7A0BEB
:100B2F0079BB120DCB7BFF7A0B79DB120DCB120E3B
:100B3F007D3090FD43C804E524452370032090FDCC
:0F0B4F0053C8FB1208F67FB87E0B120D2680DF0D
:050CA100C100010F007D
:050E85007F0ADFFE22E0
:100D2600E4FDFCC3ED9FEC9E5015E4FBFA0BBB0003
:100D3600010AEB647B4A70F50DBD00010C80E422CC
:100E03002073706565643A200020776F726C6420EC
:010E130000DE
:100D82008F0AC294C293D2927F017E00120D2685F1
:0B0D92000A80C2927F017E00020D2645
:100DF100D294C293D2928F807F017E00120D26C2BF
:020E010092223B
:100CDB008B0A8A0B890CAB0AAA0BA90C1209CDFF44
:100CEB00D394004010120DF17401250CF50CE43572
:060CFB000BF50B80E12265
:100DB7007F38120D827F0F120D827F06120D827F00
:040DC70001020D8296
:100D66007F80120D827BFF7A0E7903120CDB7FC027
:0C0D7600120D827BFF7A0E790C020CDB60
:100C1200E5898DE8BF9B0D0A00E5908EE980800D85
:100C22000A00E5B7A6E8BDAC0D0A00E58FB3E8BD42
:100C3200AC0D0A00E5819CE6ADA20D0A00E69CAA75
:100C4200E79FA5E591BDE4BBA4EFBC8CE8AFB7E894
:100C5200BE93E585A5462F422F4C2F522F530D0AE6
:010C62000091
:100D9D0053890F438920758DFD758BFDD28E759806
:0A0DAD0050D2ACD2AFC298C2992216
:080E75008F993099FDC299220A
:100DCB001209CDFF600C120E75740129F9E43AFA81
:030DDB0080EE2285
:03002300020800D0
:10080000C0E0C0F0C083C082C0D075D000C000C0BE
:1008100001C002C003C004C005C006C00720980381
:100820000208DBC298859908B290E508120A4D08C3
:10083000B40108B40208B40308CC0A08CC0D08CCF3
:100840002008B43108B43208B433087A42086C4640
:1008500008884C08965208A453087A62086C660807
:10086000886C08967208A473000008BD750F011209
:100870000E257BFF7A0C7912804F750F02120E360F
:100880007BFF7A0C791B8041750F03120E477BFFAB
:100890007A0C79248033750F04120E587BFF7A0C82
:1008A000792D8025750F00C200120E147BFF7A0C83
:1008B00079368015AF08120B5ED200800F750F00DD
:1008C000120E147BFF7A0C793F120DCBAF08120E7B
:1008D000757F0D120E757F0A120E75D007D006D0E7
:1008E00005D004D003D002D001D000D0D0D082D027
:0608F00083D0F0D0E032DD
:030CA6000110003A
:100E1400C2A0C2A1C296C297C2A2C2A3C2A6C2A7BE
:010E240022AB
:100E2500D2A0C2A1D2A2C2A3C296D297C2A6D2A76D
:010E3500229A
:100E3600C2A0D2A1C2A2D2A3D296C297D2A6C2A75C
:010E46002289
:100E4700C2A0C2A1C2A2C2A3C296D297C2A6D2A76B
:010E57002278
:100E5800D2A0C2A1D2A2C2A3C296C297C2A6C2A75A
:010E68002267
:100DDE005389F0438901758CFC758A73D2A9D28C24
:030DEE00D2AF225F
:100D4600E50F24FE600D14600D14600D2403700C75
:100D5600020E25020E36020E47020E58120E1422FD
:03000B00020C6381
:100C6300C0E0C0D0758CFC758A730510E510C39481
:100C73000A4003751000300020E50F6019E50E707F
:100C8300028013E50EB40A028007E510C3950E50E7
:0E0C930005120D468003120E14D0D0D0E032B0
:100CA9000223000002250000022100000F336469BD
:100CB9007374616E63653A202020636D000C27739D
:0B0CC900706565643A202020202500A3
:0C0E6900E4F5C875CD3C75CCB0D2AF22CA
:1008F600E50EB40A047F3180027F208F2DE50EB409
:100906000A047F308005E50E2430FF8F2E752F30C8
:100916007F80120D827B007A007927120CDBE5249A
:1009260064014523702175CD3C75CCB0F523F524C3
:10093600753E2D753D2D753C2D7FC0120D827B00B9
:100946007A007933020CDBAFCDEFFEADCC7C00E450
:100956002DFFEC3ECF2450F526EF34C3F525FEAF30
:10096600267D141209F87C007D221209E67D6412A8
:1009760009F88E218F227C007D641209F8EF4E6003
:1009860006EF2430FF80027F208F3CAE21AF227C11
:10099600007D0A1209F87C007D0A1209F8ED243060
:1009A600F53DAE21AF227C007D0A1209F8ED243018
:1009B600F53E7FC0120D827B007A007933120CDB84
:0709C60075CD3C75CCB02299
:080E7D00D291120E85C29122F0
:100D0100E9809FE5BAA6E8AEBEE7BDAEE4B8BA3A5F
:100D110020002028E58DA0E7A9BAE6AF9420003095
:050D210025290D0A0068
:060CD400010E05010D00F8
:100B5E008F09E50924FE601624D1600714600F2466
:100B6E00317016E50EC3940A5012050E800EE50E76
:100B7E00D394014007150E8003750E05E50F700323
:100B8E00750F01D2007BFF7A0D7901120DCBAF09E3
:100B9E00120E757BFF7A0D7913120DCBE50E2430F4
:0D0BAE00FF120E757BFF7A0D7920020DCB32
:03000000020A737E
:0C0A7300787FE4F6D8FD758141020ABAD4
:1009CD00BB010689828A83E0225002E722BBFE0228
:0909DD00E32289828A83E493225B
:1009E600EF8DF0A4A8F0CF8CF0A428CE8DF0A42E25
:0209F600FE22DF
:1009F800BC000BBE0029EF8DF084FFADF022E4CCE3
:100A0800F875F008EF2FFFEE33FEEC33FCEE9DECAB
:100A1800984005FCEE9DFE0FD5F0E9E4CEFD22EDF1
:100A2800F8F5F0EE8420D21CFEADF075F008EF2F3B
:100A3800FFED33FD4007985006D5F0F222C398FD2C
:050A48000FD5F0EA22C9
:100A4D00D083D082F8E4937012740193700DA3A338
:100A5D0093F8740193F5828883E47374029368604C
:060A6D00EFA3A3A380DF4C
:100A7F00020AFFE493A3F8E493A34003F68001F284
:100A8F0008DFF48029E493A3F85407240CC8C33378
:100A9F00C4540F4420C8834004F456800146F6DF47
:100AAF00E4800B0102040810204080900CA1E47E2A
:100ABF00019360BCA3FF543F30E509541FFEE4933C
:100ACF00A360010ECF54C025E060A840B8E493A303
:100ADF00FAE493A3F8E493A3C8C582C8CAC583CA2E
:100AEF00F0A3C8C582C8CAC583CADFE9DEE780BEE6
:010CDA000019
:00000001FF
