:100B330048432D3038E794B5E69CBAE68EA7E5889E
:100B4300B6E7B3BBE7BB9FE5B0B1E7BBAA0D0A00AD
:100B5300E591BDE4BBA43A20462DE5898DE8BF9B12
:100B630020422DE5908EE98080204C2DE5B7A6E844
:100B7300BDAC20522DE58FB3E8BDAC20532DE581EC
:070B83009CE6ADA20D0A0083
:100AD400C291C2907FD07E07120CD8120D69120DFC
:100AE40018120E1BC2A0C2A1C296C297C2A2C2A370
:100AF400C2A6C2A7C290120D4F120D907BFF7A0BB3
:100B04007933120D7D7BFF7A0B7953120D7D120E12
:100B14002F3090FD43C804E50B450A70032090FD77
:0F0B240053C8FB1208F97FB87E0B120CD880DF84
:050C6100C100011F00AD
:050E37007F0ADFFE222E
:100CD800E4FDFCC3ED9FEC9E5015E4FBFA0BBB0052
:100CE800010AEB647B4A70F50DBD00010C80E4221B
:100DB5002073706565643A200020776F726C64203B
:010DC500002D
:100D34008F23C294C293D2927F017E00120CD88575
:0B0D44002380C2927F017E00020CD8C9
:100DA300D294C293D2928F807F017E00120CD8C25C
:020DB30092228A
:100C8D008B238A248925AB23AA24A9251209A2FF27
:100C9D00D394004010120DA374012525F525E435DC
:060CAD0024F52480E12281
:100D69007F38120D347F0F120D347F06120D347F38
:040D790001020D3432
:100D18007F80120D347BFF7A0D79B5120C8D7FC060
:0C0D2800120D347BFF7A0D79BE020C8D99
:100B8A00E5898DE8BF9B0D0A00E5908EE980800D0E
:100B9A000A00E5B7A6E8BDAC0D0A00E58FB3E8BDCB
:100BAA00AC0D0A00E5819CE6ADA20D0A00E69CAAFE
:100BBA00E79FA5E591BDE4BBA4EFBC8CE8AFB7E81D
:100BCA00BE93E585A5462F422F4C2F522F530D0A6F
:010BDA00001A
:100D4F0053890F438920758DFD758BFDD28E759854
:0A0D5F0050D2ACD2AFC298C2992264
:080E27008F993099FDC2992258
:100D7D001209A2FF600C120E27740129F9E43AFA48
:030D8D0080EE22D3
:03002300020800D0
:10080000C0E0C0F0C083C082C0D075D000C000C0BE
:1008100001C002C003C004C005C006C00720980381
:100820000208DEC298859921B290E521120A2208B9
:10083000B70108B70208B70308B73108B73208B7DD
:100840003308744208634608854C08965208A7533B
:1008500008746208636608856C08967208A77300BE
:100860000008C0751F01200003120DD77BFF7A0B13
:10087000798A8058751F02200003120DE87BFF7AE9
:100880000B79938047751F03200003120DF97BFF3E
:100890007A0B799C8036751F04200003120E0A7BA8
:1008A000FF7A0B79A58025751F00C200120DC67B4B
:1008B000FF7A0B79AE8015AF21120BDBD200800FCF
:1008C000751F00120DC67BFF7A0B79B7120D7DAF35
:1008D00021120E277F0D120E277F0A120E27D00736
:1008E000D006D005D004D003D002D001D000D0D0A3
:0908F000D082D083D0F0D0E032B8
:030C660001260064
:100DC600C2A0C2A1C296C297C2A2C2A3C2A6C2A70D
:010DD60022FA
:100DD700D2A0C2A1D296C297D2A2C2A3D2A6C2A7BC
:010DE70022E9
:100DE800C2A0D2A1C296D297C2A2D2A3C2A6D2A7AB
:010DF80022D8
:100DF900C2A0C2A1D296C297C2A2C2A3D2A6C2A7BA
:010E090022C6
:100E0A00D2A0C2A1C296C297D2A2C2A3C2A6C2A7A8
:010E1A0022B5
:100D90005389F0438901758CFC758A73D2A9D28C72
:030DA000D2AF22AD
:100CF800E51F24FE600D14600D14600D2403700CB4
:100D0800020DD7020DE8020DF9020E0A120DC622D5
:03000B00020C23C1
:100C2300C0E0C0D0758CFC758A730526E526C39495
:100C33000A4003752600300020E51F6019E51E7089
:100C4300028013E51EB40A028007E526C3951E50F1
:0E0C530005120CF88003120DC6D0D0D0E0328E
:100C6900020A0000020C0000020800000F0E64696D
:0D0C79007374616E63653A202020636D0086
:0C0E1B00E4F5C875CD3C75CCB0D2AF2218
:1008F900E50B6401450A702175CD3C75CCB0F50A4C
:10090900F50B75192D75182D75172D7FC0120D341E
:100919007B007A00790E020C8DAFCDEFFEADCC7C59
:1009290000E42DFFEC3ECF2450F50DEF34C3F50C58
:10093900FEAF0D7D141209CD7C007D221209BB7D0D
:10094900641209CD8E088F097C007D641209CDEFF0
:100959004E6006EF2430FF80027F208F17AE08AF6C
:10096900097C007D0A1209CD7C007D0A1209CDEDB2
:100979002430F518AE08AF097C007D0A1209CDEDC7
:100989002430F5197FC0120D347B007A00790E12DC
:090999000C8D75CD3C75CCB0222B
:080E2F00D291120E37C291228C
:100CB300E9809FE5BAA6E8AEBEE7BDAEE4B8BA3AAE
:100CC30020002028E58DA0E7A9BAE6AF94200030E4
:050CD30025290D0A00B7
:060C8600011E00011D002B
:100BDB008F22E52224FE600F24D1600714600824C5
:100BEB00317008051E8007151E8003751E05D20087
:100BFB007BFF7A0C79B3120D7DAF22120E277BFF90
:100C0B007A0C79C5120D7DE51E2430FF120E277B61
:080C1B00FF7A0C79D2020D7D75
:03000000020A48A9
:0C0A4800787FE4F6D8FD758126020A8F45
:1009A200BB010689828A83E0225002E722BBFE0253
:0909B200E32289828A83E4932286
:1009BB00EF8DF0A4A8F0CF8CF0A428CE8DF0A42E50
:0209CB00FE220A
:1009CD00BC000BBE0029EF8DF084FFADF022E4CC0E
:1009DD00F875F008EF2FFFEE33FEEC33FCEE9DECD7
:1009ED00984005FCEE9DFE0FD5F0E9E4CEFD22ED1D
:1009FD00F8F5F0EE8420D21CFEADF075F008EF2F67
:100A0D00FFED33FD4007985006D5F0F222C398FD57
:050A1D000FD5F0EA22F4
:100A2200D083D082F8E4937012740193700DA3A363
:100A320093F8740193F5828883E473740293686077
:060A4200EFA3A3A380DF77
:100A5400020AD4E493A3F8E493A34003F68001F2DA
:100A640008DFF48029E493A3F85407240CC8C333A3
:100A7400C4540F4420C8834004F456800146F6DF72
:100A8400E4800B0102040810204080900C61E47E95
:100A9400019360BCA3FF543F30E509541FFEE49367
:100AA400A360010ECF54C025E060A840B8E493A32E
:100AB400FAE493A3F8E493A3C8C582C8CAC583CA59
:100AC400F0A3C8C582C8CAC583CADFE9DEE780BE11
:010C8C000067
:00000001FF
