:100B640048432D3038E794B5E69CBAE68EA7E5886D
:100B7400B6E7B3BBE7BB9FE5B0B1E7BBAA0D0A007C
:100B8400E591BDE4BBA43A20462DE5898DE8BF9BE1
:100B940020422DE5908EE98080204C2DE5B7A6E813
:100BA400BDAC20522DE58FB3E8BDAC20532DE581BB
:070BB4009CE6ADA20D0A0052
:100B0500C291C2907FD07E07120CC8120D9D120CA7
:100B1500E8120E0BC2A0C2A1C296C297C2A2C2A37E
:100B2500C2A6C2A7C290120D1F120DC47BFF7A0B7D
:100B35007964120DB17BFF7A0B7984120DB1120E17
:100B45001F3090FD43C804E50B450A70032090FD56
:0F0B550053C8FB1208C17FB87E0B120CC880DF9B
:020C3000C10001
:050E27007F0ADFFE223E
:100CC800E4FDFCC3ED9FEC9E5015E4FBFA0BBB0062
:100CD800010AEB647B4A70F50DBD00010C80E4222B
:100DE9002073706565643A200020776F726C642007
:010DF90000F9
:100D04008F23C294C293D2927F017E00120CC885B5
:0B0D14002380C2927F017E00020CC809
:100DD700D294C293D2928F807F017E00120CC8C238
:020DE700922256
:100C59008B238A248925AB23AA24A92512096AFF93
:100C6900D394004010120DD774012525F525E435DC
:060C790024F52480E122B5
:100D9D007F38120D047F0F120D047F06120D047F94
:040DAD0001020D042E
:100CE8007F80120D047BFF7A0D79E9120C597FC0C1
:0C0CF800120D047BFF7A0D79F2020C59FA
:100C0300E5819CE6ADA20D0A00E69CAAE79FA5E557
:100C130091BDE4BBA4EFBC8CE8AFB7E8BE93E58518
:0D0C2300A5462F422F4C2F522F530D0A00D3
:100D1F0053890F438920758DFD758BFDD28E759884
:0A0D2F0050D2ACD2AFC298C2992294
:080E17008F993099FDC2992268
:100DB10012096AFF600C120E17740129F9E43AFA5C
:030DC10080EE229F
:03002300020800D0
:10080000C0E0C0F0C083C082C0D075D000C000C0BE
:1008100001C002C003C004C005C006C00720980381
:100820000208A6C298859921B290E5211209EA082A
:10083000820108820208820308823108823208821B
:1008400033086842086346086D4C087252087753B3
:10085000086862086366086D6C0872720877730036
:1008600000088B120D39802F120D52802A120D6B49
:100870008025120D848020120DFA7BFF7A0C7903FB
:100880008012AF21120BBBD200800C120DFA7BFF3D
:100890007A0C790C120DB1AF21120E177F0D120ECA
:1008A000177F0A120E17D007D006D005D004D00348
:1008B000D002D001D000D0D0D082D083D0F0D0E010
:0108C0003205
:100CA400E5898DE8BF9B0D0A00E5908EE980800DF3
:100CB4000A00E5B7A6E8BDAC0D0A00E58FB3E8BDB0
:040CC400AC0D0A0069
:030C3200011F009F
:100DFA00C2A0C2A1C296C297C2A2C2A3C2A6C2A7D9
:010E0A0022C5
:100D3900D2A0C2A1D296C297D2A2C2A3D2A6C2A75A
:090D49007BFF7A0C79A4020DB1C4
:100D5200C2A0D2A1C296D297C2A2D2A3C2A6D2A741
:090D62007BFF7A0C79AD020DB1A2
:100D6B00C2A0C2A1D296C297C2A2C2A3D2A6C2A748
:090D7B007BFF7A0C79B6020DB180
:100D8400D2A0C2A1C296C297D2A2C2A3C2A6C2A72F
:090D94007BFF7A0C79BF020DB15E
:100DC4005389F0438901758CFC758A73D2A9D28C3E
:030DD400D2AF2279
:03000B00020A9C4A
:100A9C00C0E0C0F0C083C082C0D075D000C000C020
:100AAC0001C002C003C004C005C006C007758CFCA1
:100ABC00758A73051FE51FC3940A4003751F003028
:100ACC00001CE51E70028013E51EB40A028007E5C7
:100ADC001FC3951E5005120D398003120DFAD00755
:100AEC00D006D005D004D003D002D001D000D0D095
:090AFC00D082D083D0F0D0E032AA
:100C3500020A0000020C0000020800000F0E6469A1
:0D0C45007374616E63653A202020636D00BA
:0C0E0B00E4F5C875CD3C75CCB0D2AF2228
:1008C100E50B6401450A702175CD3C75CCB0F50A84
:1008D100F50B75192D75182D75172D7FC0120D0487
:1008E1007B007A00790E020C59AFCDEFFEADCC7CC6
:1008F10000E42DFFEC3ECF2450F50DEF34C3F50C91
:10090100FEAF0D7D141209957C007D221209837DB5
:10091100641209958E088F097C007D64120995EF98
:100921004E6006EF2430FF80027F208F17AE08AFA4
:10093100097C007D0A1209957C007D0A120995ED5A
:100941002430F518AE08AF097C007D0A120995ED37
:100951002430F5197FC0120D047B007A00790E1244
:090961000C5975CD3C75CCB02297
:080E1F00D291120E27C29122AC
:100C7F00E9809FE5BAA6E8AEBEE7BDAEE4B8BA3AE2
:100C8F0020002028E58DA0E7A9BAE6AF9420003018
:050C9F0025290D0A00EB
:060C5200011E00011D005F
:100BBB008F22E52224FE600F24D1600714600824E5
:100BCB00317008051E8007151E8003751E05D200A7
:100BDB007BFF7A0C797F120DB1AF22120E177BFFC0
:100BEB007A0C7991120DB1E51E2430FF120E177B92
:080BFB00FF7A0C799E020DB196
:03000000020A10E1
:0C0A1000787FE4F6D8FD758125020A57B6
:10096A00BB010689828A83E0225002E722BBFE028B
:09097A00E32289828A83E49322BE
:10098300EF8DF0A4A8F0CF8CF0A428CE8DF0A42E88
:02099300FE2242
:10099500BC000BBE0029EF8DF084FFADF022E4CC46
:1009A500F875F008EF2FFFEE33FEEC33FCEE9DEC0F
:1009B500984005FCEE9DFE0FD5F0E9E4CEFD22ED55
:1009C500F8F5F0EE8420D21CFEADF075F008EF2F9F
:1009D500FFED33FD4007985006D5F0F222C398FD90
:0509E5000FD5F0EA222D
:1009EA00D083D082F8E4937012740193700DA3A39C
:1009FA0093F8740193F5828883E4737402936860B0
:060A0A00EFA3A3A380DFAF
:100A1C00020B05E493A3F8E493A34003F68001F2E0
:100A2C0008DFF48029E493A3F85407240CC8C333DB
:100A3C00C4540F4420C8834004F456800146F6DFAA
:100A4C00E4800B0102040810204080900C30E47EFE
:100A5C00019360BCA3FF543F30E509541FFEE4939F
:100A6C00A360010ECF54C025E060A840B8E493A366
:100A7C00FAE493A3F8E493A3C8C582C8CAC583CA91
:100A8C00F0A3C8C582C8CAC583CADFE9DEE780BE49
:010C5800009B
:00000001FF
