:100BBE0048432D3038E794B5E69CBAE68EA7E58813
:100BCE00B6E7B3BBE7BB9FE5B0B1E7BBAA0D0A0022
:100BDE00E591BDE4BBA43A20462DE5898DE8BF9B87
:100BEE0020422DE5908EE98080204C2DE5B7A6E8B9
:100BFE00BDAC20522DE58FB3E8BDAC20532DE58161
:070C0E009CE6ADA20D0A00F7
:100B0200C291C2907FD07E07120D29120DBA120D2A
:100B120069120E6CC2A0C2A1C296C297C2A2C2A39F
:100B2200C2A6C2A7C290120DA0120DE17BFF7A0BE2
:100B320079BE120DCE7BFF7A0B79DE120DCE120E2C
:100B4200803090FD43C804E524452370032090FDC6
:0F0B520053C8FB1208F97FB87E0B120D2980DF04
:050CA400C100010F007A
:050E88007F0ADFFE22DD
:100D2900E4FDFCC3ED9FEC9E5015E4FBFA0BBB0000
:100D3900010AEB647B4A70F50DBD00010C80E422C9
:100E06002073706565643A200020776F726C6420E9
:010E160000DB
:100D85008F0AC294C293D2927F017E00120D2985EB
:0B0D95000A80C2927F017E00020D293F
:100DF400D294C293D2928F807F017E00120D29C2B9
:020E0400922238
:100CDE008B0A8A0B890CAB0AAA0BA90C1209D0FF3E
:100CEE00D394004010120DF47401250CF50CE4356C
:060CFE000BF50B80E12262
:100DBA007F38120D857F0F120D857F06120D857FF4
:040DCA0001020D8590
:100D69007F80120D857BFF7A0E7906120CDE7FC01B
:0C0D7900120D857BFF7A0E790F020CDE54
:100C1500E5898DE8BF9B0D0A00E5908EE980800D82
:100C25000A00E5B7A6E8BDAC0D0A00E58FB3E8BD3F
:100C3500AC0D0A00E5819CE6ADA20D0A00E69CAA72
:100C4500E79FA5E591BDE4BBA4EFBC8CE8AFB7E891
:100C5500BE93E585A5462F422F4C2F522F530D0AE3
:010C6500008E
:100DA00053890F438920758DFD758BFDD28E759803
:0A0DB00050D2ACD2AFC298C2992213
:080E78008F993099FDC2992207
:100DCE001209D0FF600C120E78740129F9E43AFA78
:030DDE0080EE2282
:03002300020800D0
:10080000C0E0C0F0C083C082C0D075D000C000C0BE
:1008100001C002C003C004C005C006C00720980381
:100820000208DEC298859908B290E508120A5008BD
:10083000B70108B70208B70308B73108B73208B7DD
:100840003308744208634608854C08965208A7533B
:1008500008746208636608856C08967208A77300BE
:100860000008C0750F01200003120E287BFF7A0CD0
:1008700079158058750F02200003120E397BFF7A1C
:100880000C791E8047750F03200003120E4A7BFF70
:100890007A0C79278036750F04200003120E5B7BDB
:1008A000FF7A0C79308025750F00C200120E177B7D
:1008B000FF7A0C79398015AF08120B61D200800FD6
:1008C000750F00120E177BFF7A0C7942120DCEAF16
:1008D00008120E787F0D120E787F0A120E78D0075C
:1008E000D006D005D004D003D002D001D000D0D0A3
:0908F000D082D083D0F0D0E032B8
:030CA90001100037
:100E1700C2A0C2A1C296C297C2A2C2A3C2A6C2A7BB
:010E270022A8
:100E2800D2A0C2A1D296C297D2A2C2A3D2A6C2A76A
:010E38002297
:100E3900C2A0D2A1C296D297C2A2D2A3C2A6D2A759
:010E49002286
:100E4A00C2A0C2A1D296C297C2A2C2A3D2A6C2A768
:010E5A002275
:100E5B00D2A0C2A1C296C297D2A2C2A3C2A6C2A757
:010E6B002264
:100DE1005389F0438901758CFC758A73D2A9D28C21
:030DF100D2AF225C
:100D4900E50F24FE600D14600D14600D2403700C72
:100D5900020E28020E39020E4A020E5B120E1722EB
:03000B00020C667E
:100C6600C0E0C0D0758CFC758A730510E510C3947E
:100C76000A4003751000300020E50F6019E50E707C
:100C8600028013E50EB40A028007E510C3950E50E4
:0E0C960005120D498003120E17D0D0D0E032A7
:100CAC000223000002250000022100000F336469BA
:100CBC007374616E63653A202020636D000C27739A
:0B0CCC00706565643A202020202500A0
:0C0E6C00E4F5C875CD3C75CCB0D2AF22C7
:1008F900E50EB40A047F3180027F208F2DE50EB406
:100909000A047F308005E50E2430FF8F2E752F30C5
:100919007F80120D857B007A007927120CDEE52491
:1009290064014523702175CD3C75CCB0F523F524C0
:10093900753E2D753D2D753C2D7FC0120D857B00B3
:100949007A007933020CDEAFCDEFFEADCC7C00E44A
:100959002DFFEC3ECF2450F526EF34C3F525FEAF2D
:10096900267D141209FB7C007D221209E97D64129F
:1009790009FB8E218F227C007D641209FBEF4E60FA
:1009890006EF2430FF80027F208F3CAE21AF227C0E
:10099900007D0A1209FB7C007D0A1209FBED243057
:1009A900F53DAE21AF227C007D0A1209FBED243012
:1009B900F53E7FC0120D857B007A007933120CDE7B
:0709C90075CD3C75CCB02296
:080E8000D291120E88C29122EA
:100D0400E9809FE5BAA6E8AEBEE7BDAEE4B8BA3A5C
:100D140020002028E58DA0E7A9BAE6AF9420003092
:050D240025290D0A0065
:060CD700010E05010D00F5
:100B61008F09E50924FE601624D1600714600F2463
:100B7100317016E50EC3940A5012050E800EE50E73
:100B8100D394014007150E8003750E05E50F700320
:100B9100750F01D2007BFF7A0D7904120DCEAF09DA
:100BA100120E787BFF7A0D7916120DCEE50E2430E8
:0D0BB100FF120E787BFF7A0D7923020DCE26
:03000000020A767B
:0C0A7600787FE4F6D8FD758141020ABDCE
:1009D000BB010689828A83E0225002E722BBFE0225
:0909E000E32289828A83E4932258
:1009E900EF8DF0A4A8F0CF8CF0A428CE8DF0A42E22
:0209F900FE22DC
:1009FB00BC000BBE0029EF8DF084FFADF022E4CCE0
:100A0B00F875F008EF2FFFEE33FEEC33FCEE9DECA8
:100A1B00984005FCEE9DFE0FD5F0E9E4CEFD22EDEE
:100A2B00F8F5F0EE8420D21CFEADF075F008EF2F38
:100A3B00FFED33FD4007985006D5F0F222C398FD29
:050A4B000FD5F0EA22C6
:100A5000D083D082F8E4937012740193700DA3A335
:100A600093F8740193F5828883E473740293686049
:060A7000EFA3A3A380DF49
:100A8200020B02E493A3F8E493A34003F68001F27D
:100A920008DFF48029E493A3F85407240CC8C33375
:100AA200C4540F4420C8834004F456800146F6DF44
:100AB200E4800B0102040810204080900CA4E47E24
:100AC200019360BCA3FF543F30E509541FFEE49339
:100AD200A360010ECF54C025E060A840B8E493A300
:100AE200FAE493A3F8E493A3C8C582C8CAC583CA2B
:100AF200F0A3C8C582C8CAC583CADFE9DEE780BEE3
:010CDD000016
:00000001FF
