:100C1C0048432D3038E794B5E69CBAE68EA7E588B4
:100C2C00B6E7B3BBE7BB9FE5B0B1E7BBAA0D0A00C3
:100C3C00E591BDE4BBA43A20462DE5898DE8BF9B28
:100C4C0020422DE5908EE98080204C2DE5B7A6E85A
:100C5C00BDAC20522DE58FB3E8BDAC20532DE58102
:070C6C009CE6ADA20D0A0099
:100B6500C291C2907FD07E07120D37120E07120D6B
:100B750057120E72C2A0C2A1C2A4C2A5C2A2C2A32C
:100B8500C2A6C2A7C290120DF2120E627BFF7A0CAA
:100B9500791C120E1B7BFF7A0C793C120E1B120E70
:100BA500883090FDD28CE50B450A70032090FDC27C
:0D0BB5008C12098A7FB87E0B120D3780E18B
:050E90007F0ADFFE22D5
:100D3700E4FDFCC3ED9FEC9E5015E4FBFA0BBB00F2
:100D4700010AEB647B4A70F50DBD00010C80E422BB
:100E40002073706565643A200020776F726C6420AF
:010E500000A1
:100D73008F24C294C293D2927F017E00120D3785D5
:0B0D83002480C2927F017E00020D3729
:100E2E00D294C293D2928F807F017E00120D37C270
:020E3E009222FE
:100D11008B248A258926AB24AA25A926120A33FF0A
:100D2100D394004010120E2E74012526F526E435C9
:060D310025F52580E122FA
:100E07007F38120D737F0F120D737F06120D737FDC
:040E170001020D7354
:100D57007F80120D737BFF7A0E7940120D117FC0D1
:0C0D6700120D737BFF7A0E7949020D110A
:100CBB00E5819CE6ADA20D0A00E69CAAE79FA5E59F
:100CCB0091BDE4BBA4EFBC8CE8AFB7E8BE93E58560
:0D0CDB00A5462F422F4C2F522F530D0A001B
:100DF200438920758DFD758BFDD28E759850D2ACCE
:050E0200D2AFC29822EE
:080E80008F993099FDC29922FF
:100E1B00120A33FF600C120E80740129F9E43AFABE
:030E2B0080EE2234
:030023000208DAF6
:1008DA00C0E0C0F0C083C082C0D075D000C000C0E4
:1008EA0001C002C003C004C005C006C00730987525
:1008FA00C298859921B290E521120AB309503109AB
:10090A005032095033093642093146093B4C0940F5
:10091A0052094553093662093166093B6C0940722E
:10092A0009457300000957120D8E802A120DA780FF
:10093A0025120DC08020120DD9801B120E517BFF8B
:10094A007A0C79BB800DAF2112080080097BFF7AEF
:10095A000C79C4120E1BAF21120E807F0D120E806D
:10096A007F0A120E80D007D006D005D004D003D05B
:10097A0002D001D000D0D0D082D083D0F0D0E032E3
:100BC200E5898DE8BF9B0D0A00E5908EE980800DD6
:100BD2000A00E5B7A6E8BDAC0D0A00E58FB3E8BD93
:100BE200AC0D0A00E4BD8EE9809FE6A8A1E5BC8FAA
:100BF2000D0A00E4B8ADE9809FE6A8A1E5BC8F0D1F
:100C02000A00E9AB98E9809FE6A8A1E5BC8F0D0A2E
:0A0C120000E5819CE6ADA20D0A008A
:0B0CE800011D00011F00011E00C100E3
:100E5100C2A0C2A1C2A4C2A5C2A2C2A3C2A6C2A765
:010E6100226E
:100D8E00D2A0C2A1D2A4C2A5D2A2C2A3D2A6C2A7E9
:090D9E007BFF7A0B79C2020E1BE7
:100DA700C2A0D2A1C2A4D2A5C2A2D2A3C2A6D2A7D0
:090DB7007BFF7A0B79CB020E1BC5
:100DC000C2A0C2A1D2A4C2A5C2A2C2A3D2A6C2A7D7
:090DD0007BFF7A0B79D4020E1BA3
:100DD900D2A0C2A1C2A4C2A5D2A2C2A3C2A6C2A7BE
:090DE9007BFF7A0B79DD020E1B81
:100E6200438901758CFF758A9CD2A9D28CD2AF229C
:03000B00020C7371
:100C7300C0E0C0D0758CFF758A9C300036051EE538
:100C83001EC394644003751E00E51FB4010DE51EE9
:100C9300C3951D501AD2A0C2A18018E51FB4020F3C
:100CA300E51EC3951D5006C2A0D2A180068000C2D6
:080CB300A0C2A1D0D0D0E032B4
:100800008F22E52224D5604724FE605224FD602F0C
:1008100024FE601514601D240260030208D97523AC
:100820001E7BFF7A0B79E6802175233C7BFF7A0BD8
:1008300079F5801675235A7BFF7A0C7904800BE4D6
:10084000F523F51F7BFF7A0C7913120E1B801FE531
:100850001DC3945A5015740A251DF51D800DE51D04
:10086000D3940A400674F6251DF51D851D23E52247
:1008700064316018E52264326012E5226433600C52
:10088000E522642B6006E522642D704B85231D7FD5
:1008900053120E807F3A120E80E51DC39464400E01
:1008A0007F31120E807F30120E807F308017E51D61
:1008B00075F00A842430FF120E80E51D75F00A845D
:1008C000E5F02430FF120E807F25120E807F0D127E
:0A08D0000E807F0A120E80D2002273
:100CF300020A0000020C0000020800000F0E6469E3
:0D0D03007374616E63653A202020636D00FB
:0E0E7200758901758C3C758AB0D2A9D2AF2269
:10098A00E50B6401450A7021758C3C758AB0F50A3D
:10099A00F50B75192D75182D75172D7FC0120D734E
:1009AA007B007A00790E020D11AF8CEFFEAD8A7CC6
:1009BA0000E42DFFEC3ECF2450F50DEF34C3F50CC7
:1009CA00FEAF0D7D14120A5E7C007D22120A4C7D58
:1009DA0064120A5E8E088F097C007D64120A5EEF3B
:1009EA004E6006EF2430FF80027F208F17AE08AFDB
:1009FA00097C007D0A120A5E7C007D0A120A5EEDFD
:100A0A002430F518AE08AF097C007D0A120A5EEDA3
:100A1A002430F5197FC0120D737B007A00790E120B
:090A2A000D11758C3C758AB02297
:080E8800D291120E90C29122DA
:03000000020AD918
:0C0AD900787FE4F6D8FD758126020B2022
:100A3300BB010689828A83E0225002E722BBFE02C1
:090A4300E32289828A83E49322F4
:100A4C00EF8DF0A4A8F0CF8CF0A428CE8DF0A42EBE
:020A5C00FE2278
:100A5E00BC000BBE0029EF8DF084FFADF022E4CC7C
:100A6E00F875F008EF2FFFEE33FEEC33FCEE9DEC45
:100A7E00984005FCEE9DFE0FD5F0E9E4CEFD22ED8B
:100A8E00F8F5F0EE8420D21CFEADF075F008EF2FD5
:100A9E00FFED33FD4007985006D5F0F222C398FDC6
:050AAE000FD5F0EA2263
:100AB300D083D082F8E4937012740193700DA3A3D2
:100AC30093F8740193F5828883E4737402936860E6
:060AD300EFA3A3A380DFE6
:100AE500020B65E493A3F8E493A34003F68001F2B7
:100AF50008DFF48029E493A3F85407240CC8C33312
:100B0500C4540F4420C8834004F456800146F6DFE0
:100B1500E4800B0102040810204080900CE8E47E7C
:100B2500019360BCA3FF543F30E509541FFEE493D5
:100B3500A360010ECF54C025E060A840B8E493A39C
:100B4500FAE493A3F8E493A3C8C582C8CAC583CAC7
:100B5500F0A3C8C582C8CAC583CADFE9DEE780BE7F
:010D100000E2
:00000001FF
