:100BDE0048432D3038E794B5E69CBAE68EA7E588F3
:100BEE00B6E7B3BBE7BB9FE5B0B1E7BBAA0D0A0002
:100BFE00E591BDE4BBA43A20462DE5898DE8BF9B67
:100C0E0020422DE5908EE98080204C2DE5B7A6E898
:100C1E00BDAC20522DE58FB3E8BDAC20532DE58140
:070C2E009CE6ADA20D0A00D7
:100B7F00C291C2907FD07E07120D4D120DDE120D65
:100B8F008D120E90C2A0C2A1C296C297C2A2C2A3DA
:100B9F00C2A6C2A7C290120DC4120E057BFF7A0B1C
:100BAF0079DE120DF27BFF7A0B79FE120DF2120E27
:100BBF00A43090FD43C804E524452370032090FD25
:0F0BCF0053C8FB1208F67FB87E0B120D4D80DF66
:050C8600C100010F0098
:050EAC007F0ADFFE22B9
:100D4D00E4FDFCC3ED9FEC9E5015E4FBFA0BBB00DC
:100D5D00010AEB647B4A70F50DBD00010C80E422A5
:100E2A002073706565643A200020776F726C6420C5
:010E3A0000B7
:100DA9008F09C294C293D2927F017E00120D4D85A4
:0B0DB9000980C2927F017E00020D4DF8
:100E1800D294C293D2928F807F017E00120D4DC270
:020E2800922214
:100D03008B098A0A890BAB09AA0AA90B1209D3FF1B
:100D1300D394004010120E187401250BF50BE43523
:060D23000AF50A80E1223E
:100DDE007F38120DA97F0F120DA97F06120DA97F64
:040DEE0001020DA948
:100D8D007F80120DA97BFF7A0E792A120D037FC089
:0C0D9D00120DA97BFF7A0E7933020D03C2
:100C3500E5898DE8BF9B0D0A00E5908EE980800D62
:100C45000A00E5B7A6E8BDAC0D0A00E58FB3E8BD1F
:100C5500AC0D0A00E5819CE6ADA20D0A00E69CAA52
:100C6500E79FA5E591BDE4BBA4EFBC8CE8AFB7E871
:100C7500BE93E585A5462F422F4C2F522F530D0AC3
:010C8500006E
:100DC40053890F438920758DFD758BFDD28E7598DF
:0A0DD40050D2ACD2AFC298C29922EF
:080E9C008F993099FDC29922E3
:100DF2001209D3FF600C120E9C740129F9E43AFA2D
:030E020080EE225D
:03002300020800D0
:10080000C0E0C0F0C083C082C0D075D000C000C0BE
:1008100001C002C003C004C005C006C00720980381
:100820000208DBC298859908B290E508120A5308BD
:10083000B40108B40208B40308CC0A08CC0D08CCF3
:100840002008B43108B43208B433087A42086C4640
:1008500008884C08965208A453087A62086C660807
:10086000886C08967208A473000008BD750F011209
:100870000E4C7BFF7A0C7935804F750F02120E5D9E
:100880007BFF7A0C793E8041750F03120E6E7BFF61
:100890007A0C79478033750F04120E7F7BFF7A0C38
:1008A00079508025750F00C200120E3B7BFF7A0C39
:1008B00079598015AF08120B05D200800F750F0013
:1008C000120E3B7BFF7A0C7962120DF2AF08120E0A
:1008D0009C7F0D120E9C7F0A120E9CD007D006D072
:1008E00005D004D003D002D001D000D0D0D082D027
:0608F00083D0F0D0E032DD
:030C8B0001100055
:100E3B00C2A0C2A1C296C297C2A2C2A3C2A6C2A797
:010E4B002284
:100E4C00D2A0C2A1D2A2C2A3C296D297C2A6D2A746
:010E5C002273
:100E5D00C2A0D2A1C2A2D2A3D296C297D2A6C2A735
:010E6D002262
:100E6E00C2A0C2A1C2A2C2A3C296D297C2A6D2A744
:010E7E002251
:100E7F00D2A0C2A1D2A2C2A3C296C297C2A6C2A733
:010E8F002240
:100E05005389F0438901758CFC758A73D2A9D28CFC
:030E1500D2AF2237
:100D6D00E50F24FE600D14600D14600D2403700C4E
:100D7D00020E4C020E5D020E6E020E7F120E3B2213
:03000B00020CC51F
:100CC500C0E0C0D0758CFC758A730510E510C3941F
:100CD5000A4003751000300020E50F6019E50E701D
:100CE500028013E50EB40A028007E510C3950E5085
:0E0CF50005120D6D8003120E3BD0D0D0E03200
:100C8E000223000002250000022100000F356469D6
:100C9E007374616E63653A202020636D000E2747E2
:0D0CAE006561723A5820202020202025008A
:0C0E9000E4F5C875CD3C75CCB0D2AF22A3
:1008F600E50C2430F52CE50EB40A047F3180027F26
:10090600208F2EE50EB40A047F308005E50E2430D4
:10091600FF8F2F7530307F80120DA97B007A00790A
:1009260027120D03E52464014523702175CD3C751E
:10093600CCB0F523F52475402D753F2D753E2D7FE2
:10094600C0120DA97B007A007935020D03AFCDEFF9
:10095600FEADCC7C00E42DFFEC3ECF2450F526EF17
:1009660034C3F525FEAF267D141209FE7C007D22D8
:100976001209EC7D641209FE8E218F227C007D64B3
:100986001209FEEF4E6006EF2430FF80027F208FB3
:100996003EAE21AF227C007D0A1209FE7C007D0A54
:1009A6001209FEED2430F53FAE21AF227C007D0A10
:1009B6001209FEED2430F5407FC0120DA97B007AA6
:0D09C600007935120D0375CD3C75CCB022C3
:080EA400D291120EACC29122A2
:100D2900E68CA1E4BD8D3A20002028E58DA0E7A935
:100D3900BAE6AF9420003130300025290D0A0006AB
:040D49000708090A84
:090CBB00010E08010C03010D00FB
:100B0500EF24FE601624D1600714600F243170169F
:100B1500E50CC394055012050C800EE50CD3940129
:100B25004007150C8003750C03E50C900D4793F5F4
:100B35000EE50F7003750F01D2007BFF7A0D792941
:100B4500120DF2E50C2430FF120E9C7BFF7A0D7915
:100B550032120DF2E50EB40A0B7BFF7A0D793F12C6
:100B65000DF2800DE50E2430FF120E9C7F30120E23
:0A0B75009C7BFF7A0D7943020DF21C
:03000000020A7978
:0C0A7900787FE4F6D8FD758143020AC0C6
:1009D300BB010689828A83E0225002E722BBFE0222
:0909E300E32289828A83E4932255
:1009EC00EF8DF0A4A8F0CF8CF0A428CE8DF0A42E1F
:0209FC00FE22D9
:1009FE00BC000BBE0029EF8DF084FFADF022E4CCDD
:100A0E00F875F008EF2FFFEE33FEEC33FCEE9DECA5
:100A1E00984005FCEE9DFE0FD5F0E9E4CEFD22EDEB
:100A2E00F8F5F0EE8420D21CFEADF075F008EF2F35
:100A3E00FFED33FD4007985006D5F0F222C398FD26
:050A4E000FD5F0EA22C3
:100A5300D083D082F8E4937012740193700DA3A332
:100A630093F8740193F5828883E473740293686046
:060A7300EFA3A3A380DF46
:100A8500020B7FE493A3F8E493A34003F68001F2FD
:100A950008DFF48029E493A3F85407240CC8C33372
:100AA500C4540F4420C8834004F456800146F6DF41
:100AB500E4800B0102040810204080900C86E47E3F
:100AC500019360BCA3FF543F30E509541FFEE49336
:100AD500A360010ECF54C025E060A840B8E493A3FD
:100AE500FAE493A3F8E493A3C8C582C8CAC583CA28
:100AF500F0A3C8C582C8CAC583CADFE9DEE780BEE0
:010CC400002F
:00000001FF
