:100B900048432D3038E794B5E69CBAE68EA7E58841
:100BA000B6E7B3BBE7BB9FE5B0B1E7BBAA0D0A0050
:100BB000E591BDE4BBA43A20462DE5898DE8BF9BB5
:100BC00020422DE5908EE98080204C2DE5B7A6E8E7
:100BD000BDAC20522DE58FB3E8BDAC20532DE5818F
:070BE0009CE6ADA20D0A0026
:100AD400C291C2907FD07E07120CED120D7E120DD2
:100AE4002D120E30C2A0C2A1C296C297C2A2C2A346
:100AF400C2A6C2A7C290120D64120DA57BFF7A0B89
:100B04007990120D927BFF7A0B79B0120D92120E2E
:100B1400443090FD43C804E50B450A70032090FD62
:0F0B240053C8FB1208F97FB87E0B120CED80DF6F
:050C7600C100011F0098
:050E4C007F0ADFFE2219
:100CED00E4FDFCC3ED9FEC9E5015E4FBFA0BBB003D
:100CFD00010AEB647B4A70F50DBD00010C80E42206
:100DCA002073706565643A200020776F726C642026
:010DDA000018
:100D49008F23C294C293D2927F017E00120CED854B
:0B0D59002380C2927F017E00020CED9F
:100DB800D294C293D2928F807F017E00120CEDC232
:020DC800922275
:100CA2008B238A248925AB23AA24A9251209A2FF12
:100CB200D394004010120DB874012525F525E435B2
:060CC20024F52480E1226C
:100D7E007F38120D497F0F120D497F06120D497FE4
:040D8E0001020D4908
:100D2D007F80120D497BFF7A0D79CA120CA27FC00C
:0C0D3D00120D497BFF7A0D79D3020CA245
:100BE700E5898DE8BF9B0D0A00E5908EE980800DB1
:100BF7000A00E5B7A6E8BDAC0D0A00E58FB3E8BD6E
:100C0700AC0D0A00E5819CE6ADA20D0A00E69CAAA0
:100C1700E79FA5E591BDE4BBA4EFBC8CE8AFB7E8BF
:100C2700BE93E585A5462F422F4C2F522F530D0A11
:010C370000BC
:100D640053890F438920758DFD758BFDD28E75983F
:0A0D740050D2ACD2AFC298C299224F
:080E3C008F993099FDC2992243
:100D92001209A2FF600C120E3C740129F9E43AFA1E
:030DA20080EE22BE
:03002300020800D0
:10080000C0E0C0F0C083C082C0D075D000C000C0BE
:1008100001C002C003C004C005C006C00720980381
:100820000208DEC298859921B290E521120A2208B9
:10083000B70108B70208B70308B73108B73208B7DD
:100840003308744208634608854C08965208A7533B
:1008500008746208636608856C08967208A77300BE
:100860000008C0751F01200003120DEC7BFF7A0BFE
:1008700079E78058751F02200003120DFD7BFF7A77
:100880000B79F08047751F03200003120E0E7BFFCB
:100890007A0B79F98036751F04200003120E1F7B36
:1008A000FF7A0C79028025751F00C200120DDB7BD8
:1008B000FF7A0C790B8015AF21120B33D200800F19
:1008C000751F00120DDB7BFF7A0C7914120D92AFAD
:1008D00021120E3C7F0D120E3C7F0A120E3CD007F7
:1008E000D006D005D004D003D002D001D000D0D0A3
:0908F000D082D083D0F0D0E032B8
:030C7B000126004F
:100DDB00C2A0C2A1C296C297C2A2C2A3C2A6C2A7F8
:010DEB0022E5
:100DEC00D2A0C2A1D296C297D2A2C2A3D2A6C2A7A7
:010DFC0022D4
:100DFD00C2A0D2A1C296D297C2A2D2A3C2A6D2A796
:010E0D0022C2
:100E0E00C2A0C2A1D296C297C2A2C2A3D2A6C2A7A4
:010E1E0022B1
:100E1F00D2A0C2A1C296C297D2A2C2A3C2A6C2A793
:010E2F0022A0
:100DA5005389F0438901758CFC758A73D2A9D28C5D
:030DB500D2AF2298
:100D0D00E51F24FE600D14600D14600D2403700C9E
:100D1D00020DEC020DFD020E0E020E1F120DDB2256
:03000B00020C38AC
:100C3800C0E0C0D0758CFC758A730526E526C39480
:100C48000A4003752600300020E51F6019E51E7074
:100C5800028013E51EB40A028007E526C3951E50DC
:0E0C680005120D0D8003120DDBD0D0D0E0324E
:100C7E00020A0000020C0000020800000F0E646958
:0D0C8E007374616E63653A202020636D0071
:0C0E3000E4F5C875CD3C75CCB0D2AF2203
:1008F900E50B6401450A702175CD3C75CCB0F50A4C
:10090900F50B75192D75182D75172D7FC0120D4909
:100919007B007A00790E020CA2AFCDEFFEADCC7C44
:1009290000E42DFFEC3ECF2450F50DEF34C3F50C58
:10093900FEAF0D7D141209CD7C007D221209BB7D0D
:10094900641209CD8E088F097C007D641209CDEFF0
:100959004E6006EF2430FF80027F208F17AE08AF6C
:10096900097C007D0A1209CD7C007D0A1209CDEDB2
:100979002430F518AE08AF097C007D0A1209CDEDC7
:100989002430F5197FC0120D497B007A00790E12C7
:090999000CA275CD3C75CCB02216
:080E4400D291120E4CC2912262
:100CC800E9809FE5BAA6E8AEBEE7BDAEE4B8BA3A99
:100CD80020002028E58DA0E7A9BAE6AF94200030CF
:050CE80025290D0A00A2
:060C9B00011E05011D0011
:100B33008F22E52224FE601624D1600714600F245F
:100B4300317016E51EC3940A5012051E800EE51E71
:100B5300D394014007151E8003751E05E51F70031E
:100B6300751F01D2007BFF7A0C79C8120D92AF2258
:100B7300120E3C7BFF7A0C79DA120D92E51E2430BB
:0D0B8300FF120E3C7BFF7A0C79E7020D9209
:03000000020A48A9
:0C0A4800787FE4F6D8FD758126020A8F45
:1009A200BB010689828A83E0225002E722BBFE0253
:0909B200E32289828A83E4932286
:1009BB00EF8DF0A4A8F0CF8CF0A428CE8DF0A42E50
:0209CB00FE220A
:1009CD00BC000BBE0029EF8DF084FFADF022E4CC0E
:1009DD00F875F008EF2FFFEE33FEEC33FCEE9DECD7
:1009ED00984005FCEE9DFE0FD5F0E9E4CEFD22ED1D
:1009FD00F8F5F0EE8420D21CFEADF075F008EF2F67
:100A0D00FFED33FD4007985006D5F0F222C398FD57
:050A1D000FD5F0EA22F4
:100A2200D083D082F8E4937012740193700DA3A363
:100A320093F8740193F5828883E473740293686077
:060A4200EFA3A3A380DF77
:100A5400020AD4E493A3F8E493A34003F68001F2DA
:100A640008DFF48029E493A3F85407240CC8C333A3
:100A7400C4540F4420C8834004F456800146F6DF72
:100A8400E4800B0102040810204080900C76E47E80
:100A9400019360BCA3FF543F30E509541FFEE49367
:100AA400A360010ECF54C025E060A840B8E493A32E
:100AB400FAE493A3F8E493A3C8C582C8CAC583CA59
:100AC400F0A3C8C582C8CAC583CADFE9DEE780BE11
:010CA1000052
:00000001FF
